{
  "_format": "hh-sol-artifact-1",
  "contractName": "CrowdFunding",
  "sourceName": "src/contracts/CrowdFunding.sol",
  "abi": [
    {
      "anonymous": false,
      "inputs": [
        {
          "indexed": true,
          "internalType": "uint256",
          "name": "id",
          "type": "uint256"
        },
        {
          "indexed": true,
          "internalType": "address",
          "name": "owner",
          "type": "address"
        },
        {
          "indexed": false,
          "internalType": "string",
          "name": "title",
          "type": "string"
        },
        {
          "indexed": false,
          "internalType": "uint256",
          "name": "target",
          "type": "uint256"
        }
      ],
      "name": "CampaignCreated",
      "type": "event"
    },
    {
      "anonymous": false,
      "inputs": [
        {
          "indexed": true,
          "internalType": "uint256",
          "name": "id",
          "type": "uint256"
        },
        {
          "indexed": true,
          "internalType": "address",
          "name": "donor",
          "type": "address"
        },
        {
          "indexed": false,
          "internalType": "uint256",
          "name": "amount",
          "type": "uint256"
        }
      ],
      "name": "DonationMade",
      "type": "event"
    },
    {
      "anonymous": false,
      "inputs": [
        {
          "indexed": true,
          "internalType": "uint256",
          "name": "id",
          "type": "uint256"
        },
        {
          "indexed": true,
          "internalType": "address",
          "name": "owner",
          "type": "address"
        },
        {
          "indexed": false,
          "internalType": "uint256",
          "name": "amount",
          "type": "uint256"
        }
      ],
      "name": "FundsClaimed",
      "type": "event"
    },
    {
      "inputs": [
        {
          "internalType": "uint256",
          "name": "",
          "type": "uint256"
        }
      ],
      "name": "campaigns",
      "outputs": [
        {
          "internalType": "address",
          "name": "owner",
          "type": "address"
        },
        {
          "internalType": "string",
          "name": "title",
          "type": "string"
        },
        {
          "internalType": "string",
          "name": "description",
          "type": "string"
        },
        {
          "internalType": "uint256",
          "name": "target",
          "type": "uint256"
        },
        {
          "internalType": "uint256",
          "name": "deadline",
          "type": "uint256"
        },
        {
          "internalType": "uint256",
          "name": "amountCollected",
          "type": "uint256"
        },
        {
          "internalType": "string",
          "name": "image",
          "type": "string"
        },
        {
          "internalType": "bool",
          "name": "claimed",
          "type": "bool"
        }
      ],
      "stateMutability": "view",
      "type": "function"
    },
    {
      "inputs": [
        {
          "internalType": "uint256",
          "name": "_id",
          "type": "uint256"
        }
      ],
      "name": "claimFunds",
      "outputs": [],
      "stateMutability": "nonpayable",
      "type": "function"
    },
    {
      "inputs": [
        {
          "internalType": "string",
          "name": "_title",
          "type": "string"
        },
        {
          "internalType": "string",
          "name": "_description",
          "type": "string"
        },
        {
          "internalType": "uint256",
          "name": "_target",
          "type": "uint256"
        },
        {
          "internalType": "uint256",
          "name": "_deadline",
          "type": "uint256"
        },
        {
          "internalType": "string",
          "name": "_image",
          "type": "string"
        }
      ],
      "name": "createCampaign",
      "outputs": [
        {
          "internalType": "uint256",
          "name": "",
          "type": "uint256"
        }
      ],
      "stateMutability": "nonpayable",
      "type": "function"
    },
    {
      "inputs": [
        {
          "internalType": "uint256",
          "name": "_id",
          "type": "uint256"
        }
      ],
      "name": "donateToCampaign",
      "outputs": [],
      "stateMutability": "payable",
      "type": "function"
    },
    {
      "inputs": [
        {
          "internalType": "uint256",
          "name": "_id",
          "type": "uint256"
        }
      ],
      "name": "getCampaign",
      "outputs": [
        {
          "internalType": "address",
          "name": "owner",
          "type": "address"
        },
        {
          "internalType": "string",
          "name": "title",
          "type": "string"
        },
        {
          "internalType": "string",
          "name": "description",
          "type": "string"
        },
        {
          "internalType": "uint256",
          "name": "target",
          "type": "uint256"
        },
        {
          "internalType": "uint256",
          "name": "deadline",
          "type": "uint256"
        },
        {
          "internalType": "uint256",
          "name": "amountCollected",
          "type": "uint256"
        },
        {
          "internalType": "string",
          "name": "image",
          "type": "string"
        },
        {
          "internalType": "bool",
          "name": "claimed",
          "type": "bool"
        }
      ],
      "stateMutability": "view",
      "type": "function"
    },
    {
      "inputs": [
        {
          "internalType": "uint256",
          "name": "_id",
          "type": "uint256"
        }
      ],
      "name": "getDonors",
      "outputs": [
        {
          "internalType": "address[]",
          "name": "",
          "type": "address[]"
        },
        {
          "internalType": "uint256[]",
          "name": "",
          "type": "uint256[]"
        }
      ],
      "stateMutability": "view",
      "type": "function"
    },
    {
      "inputs": [],
      "name": "numberOfCampaigns",
      "outputs": [
        {
          "internalType": "uint256",
          "name": "",
          "type": "uint256"
        }
      ],
      "stateMutability": "view",
      "type": "function"
    }
  ],
  "bytecode": "0x6080604052600060015534801561001557600080fd5b5061102f806100256000396000f3fe6080604052600436106100705760003560e01c8063295165111161004e57806329516511146100f457806342a4fda8146101225780635598f8cc14610135578063d4e3dd6f1461015557600080fd5b806307ca140d14610075578063141961bc1461009e5780631b55e338146100d2575b600080fd5b34801561008157600080fd5b5061008b60015481565b6040519081526020015b60405180910390f35b3480156100aa57600080fd5b506100be6100b9366004610b9a565b610175565b604051610095989796959493929190610bf9565b3480156100de57600080fd5b506100f26100ed366004610b9a565b61035b565b005b34801561010057600080fd5b5061011461010f366004610b9a565b610539565b604051610095929190610c70565b6100f2610130366004610b9a565b610608565b34801561014157600080fd5b506100be610150366004610b9a565b6107f6565b34801561016157600080fd5b5061008b610170366004610d97565b610a10565b600060208190529081526040902080546001820180546001600160a01b0390921692916101a190610e33565b80601f01602080910402602001604051908101604052809291908181526020018280546101cd90610e33565b801561021a5780601f106101ef5761010080835404028352916020019161021a565b820191906000526020600020905b8154815290600101906020018083116101fd57829003601f168201915b50505050509080600201805461022f90610e33565b80601f016020809104026020016040519081016040528092919081815260200182805461025b90610e33565b80156102a85780601f1061027d576101008083540402835291602001916102a8565b820191906000526020600020905b81548152906001019060200180831161028b57829003601f168201915b5050505050908060030154908060040154908060050154908060060180546102cf90610e33565b80601f01602080910402602001604051908101604052809291908181526020018280546102fb90610e33565b80156103485780601f1061031d57610100808354040283529160200191610348565b820191906000526020600020905b81548152906001019060200180831161032b57829003601f168201915b5050506009909301549192505060ff1688565b600081815260208190526040902080546001600160a01b031633146103d35760405162461bcd60e51b815260206004820152602360248201527f4f6e6c792063616d706169676e206f776e65722063616e20636c61696d2066756044820152626e647360e81b60648201526084015b60405180910390fd5b600981015460ff16156104285760405162461bcd60e51b815260206004820152601f60248201527f46756e6473206861766520616c7265616479206265656e20636c61696d65640060448201526064016103ca565b806004015442118061044257508060030154816005015410155b61049f5760405162461bcd60e51b815260206004820152602860248201527f43616d706169676e20686173206e6f7420656e646564206f722072656163686560448201526719081d185c99d95d60c21b60648201526084016103ca565b60098101805460ff19166001179055805460058201546040516001600160a01b039092169181156108fc0291906000818181858888f193505050501580156104eb573d6000803e3d6000fd5b50805460058201546040519081526001600160a01b039091169083907fa4eb50103b0591feb0bc913f479d92af5eb7ea33e8c397b49bab52ce6af26cb5906020015b60405180910390a35050565b600081815260208181526040918290206007810180548451818502810185019095528085526060948594929360080192909184918301828280156105a657602002820191906000526020600020905b81546001600160a01b03168152600190910190602001808311610588575b50505050509150808054806020026020016040519081016040528092919081815260200182805480156105f857602002820191906000526020600020905b8154815260200190600101908083116105e4575b5050505050905091509150915091565b60015481106106595760405162461bcd60e51b815260206004820152601760248201527f43616d706169676e20646f6573206e6f7420657869737400000000000000000060448201526064016103ca565b600034116106a95760405162461bcd60e51b815260206004820152601f60248201527f446f6e6174696f6e206d7573742062652067726561746572207468616e20300060448201526064016103ca565b60008181526020819052604090206004015442106106fe5760405162461bcd60e51b815260206004820152601260248201527110d85b5c185a59db881a185cc8195b99195960721b60448201526064016103ca565b60008181526020819052604090206009015460ff16156107605760405162461bcd60e51b815260206004820181905260248201527f43616d706169676e2066756e64732068617665206265656e20636c61696d656460448201526064016103ca565b6000818152602081815260408220600781018054600181810183559185528385200180546001600160a01b0319163317905560088201805491820181558452918320349201829055600581018054919390916107bd908490610e83565b9091555050604051348152339083907fe555da28bdb778f65d22794d88927ebaeca03f7de9d1b7d39245bc8fb5ca078a9060200161052d565b60008181526020819052604081208054600382015460048301546005840154600985015460018601805460609788978a97889788978b97899795966001600160a01b0390951695946002880194939291600689019160ff90911690879061085c90610e33565b80601f016020809104026020016040519081016040528092919081815260200182805461088890610e33565b80156108d55780601f106108aa576101008083540402835291602001916108d5565b820191906000526020600020905b8154815290600101906020018083116108b857829003601f168201915b505050505096508580546108e890610e33565b80601f016020809104026020016040519081016040528092919081815260200182805461091490610e33565b80156109615780601f1061093657610100808354040283529160200191610961565b820191906000526020600020905b81548152906001019060200180831161094457829003601f168201915b5050505050955081805461097490610e33565b80601f01602080910402602001604051908101604052809291908181526020018280546109a090610e33565b80156109ed5780601f106109c2576101008083540402835291602001916109ed565b820191906000526020600020905b8154815290600101906020018083116109d057829003601f168201915b505050505091509850985098509850985098509850985050919395975091939597565b6000428311610a615760405162461bcd60e51b815260206004820152601e60248201527f446561646c696e65206d75737420626520696e2074686520667574757265000060448201526064016103ca565b60008411610abd5760405162461bcd60e51b8152602060048201526024808201527f54617267657420616d6f756e74206d75737420626520677265617465722074686044820152630616e20360e41b60648201526084016103ca565b60018054600090815260208190526040902080546001600160a01b03191633178155908101610aec8882610eeb565b5060028101610afb8782610eeb565b5060038101859055600481018490556000600582015560068101610b1f8482610eeb565b5060098101805460ff191690556001546040513391907f825fb10f7650ed27414d6f86acdf7d5946927d9b25001f045f1a2435deec02fe90610b64908b908a90610fab565b60405180910390a360018054906000610b7c83610fcd565b919050555060018054610b8f9190610fe6565b979650505050505050565b600060208284031215610bac57600080fd5b5035919050565b6000815180845260005b81811015610bd957602081850181015186830182015201610bbd565b506000602082860101526020601f19601f83011685010191505092915050565b6001600160a01b038916815261010060208201819052600090610c1e8382018b610bb3565b90508281036040840152610c32818a610bb3565b90508760608401528660808401528560a084015282810360c0840152610c588186610bb3565b91505082151560e08301529998505050505050505050565b604080825283519082018190526000906020906060840190828701845b82811015610cb25781516001600160a01b031684529284019290840190600101610c8d565b5050508381038285015284518082528583019183019060005b81811015610ce757835183529284019291840191600101610ccb565b5090979650505050505050565b634e487b7160e01b600052604160045260246000fd5b600082601f830112610d1b57600080fd5b813567ffffffffffffffff80821115610d3657610d36610cf4565b604051601f8301601f19908116603f01168101908282118183101715610d5e57610d5e610cf4565b81604052838152866020858801011115610d7757600080fd5b836020870160208301376000602085830101528094505050505092915050565b600080600080600060a08688031215610daf57600080fd5b853567ffffffffffffffff80821115610dc757600080fd5b610dd389838a01610d0a565b96506020880135915080821115610de957600080fd5b610df589838a01610d0a565b955060408801359450606088013593506080880135915080821115610e1957600080fd5b50610e2688828901610d0a565b9150509295509295909350565b600181811c90821680610e4757607f821691505b602082108103610e6757634e487b7160e01b600052602260045260246000fd5b50919050565b634e487b7160e01b600052601160045260246000fd5b80820180821115610e9657610e96610e6d565b92915050565b601f821115610ee657600081815260208120601f850160051c81016020861015610ec35750805b601f850160051c820191505b81811015610ee257828155600101610ecf565b5050505b505050565b815167ffffffffffffffff811115610f0557610f05610cf4565b610f1981610f138454610e33565b84610e9c565b602080601f831160018114610f4e5760008415610f365750858301515b600019600386901b1c1916600185901b178555610ee2565b600085815260208120601f198616915b82811015610f7d57888601518255948401946001909101908401610f5e565b5085821015610f9b5787850151600019600388901b60f8161c191681555b5050505050600190811b01905550565b604081526000610fbe6040830185610bb3565b90508260208301529392505050565b600060018201610fdf57610fdf610e6d565b5060010190565b81810381811115610e9657610e96610e6d56fea264697066735822122057bbae377cfb24b4c1469cd6d65fe5d3294405f33159838cb7fd1dc84799c24764736f6c63430008140033",
  "linkReferences": {},
  "deployedLinkReferences": {}
}