{
  "_format": "hh-sol-artifact-1",
  "contractName": "CrowdFunding",
  "sourceName": "src/contracts/CrowdFunding.sol",
  "abi": [
    {
      "anonymous": false,
      "inputs": [
        {
          "indexed": true,
          "internalType": "uint256",
          "name": "id",
          "type": "uint256"
        },
        {
          "indexed": false,
          "internalType": "uint256",
          "name": "totalAmount",
          "type": "uint256"
        }
      ],
      "name": "CampaignCompleted",
      "type": "event"
    },
    {
      "anonymous": false,
      "inputs": [
        {
          "indexed": true,
          "internalType": "uint256",
          "name": "id",
          "type": "uint256"
        },
        {
          "indexed": true,
          "internalType": "address",
          "name": "owner",
          "type": "address"
        },
        {
          "indexed": false,
          "internalType": "string",
          "name": "title",
          "type": "string"
        },
        {
          "indexed": false,
          "internalType": "uint256",
          "name": "target",
          "type": "uint256"
        }
      ],
      "name": "CampaignCreated",
      "type": "event"
    },
    {
      "anonymous": false,
      "inputs": [
        {
          "indexed": true,
          "internalType": "uint256",
          "name": "id",
          "type": "uint256"
        },
        {
          "indexed": true,
          "internalType": "address",
          "name": "donor",
          "type": "address"
        },
        {
          "indexed": false,
          "internalType": "uint256",
          "name": "amount",
          "type": "uint256"
        }
      ],
      "name": "DonationMade",
      "type": "event"
    },
    {
      "anonymous": false,
      "inputs": [
        {
          "indexed": true,
          "internalType": "uint256",
          "name": "id",
          "type": "uint256"
        },
        {
          "indexed": true,
          "internalType": "address",
          "name": "owner",
          "type": "address"
        },
        {
          "indexed": false,
          "internalType": "uint256",
          "name": "amount",
          "type": "uint256"
        }
      ],
      "name": "FundsClaimed",
      "type": "event"
    },
    {
      "inputs": [
        {
          "internalType": "uint256",
          "name": "",
          "type": "uint256"
        }
      ],
      "name": "campaigns",
      "outputs": [
        {
          "internalType": "address",
          "name": "owner",
          "type": "address"
        },
        {
          "internalType": "string",
          "name": "title",
          "type": "string"
        },
        {
          "internalType": "string",
          "name": "description",
          "type": "string"
        },
        {
          "internalType": "uint256",
          "name": "target",
          "type": "uint256"
        },
        {
          "internalType": "uint256",
          "name": "deadline",
          "type": "uint256"
        },
        {
          "internalType": "uint256",
          "name": "amountCollected",
          "type": "uint256"
        },
        {
          "internalType": "string",
          "name": "image",
          "type": "string"
        },
        {
          "internalType": "bool",
          "name": "claimed",
          "type": "bool"
        }
      ],
      "stateMutability": "view",
      "type": "function"
    },
    {
      "inputs": [
        {
          "internalType": "uint256",
          "name": "_id",
          "type": "uint256"
        }
      ],
      "name": "claimFunds",
      "outputs": [],
      "stateMutability": "nonpayable",
      "type": "function"
    },
    {
      "inputs": [
        {
          "internalType": "string",
          "name": "_title",
          "type": "string"
        },
        {
          "internalType": "string",
          "name": "_description",
          "type": "string"
        },
        {
          "internalType": "uint256",
          "name": "_target",
          "type": "uint256"
        },
        {
          "internalType": "uint256",
          "name": "_deadline",
          "type": "uint256"
        },
        {
          "internalType": "string",
          "name": "_image",
          "type": "string"
        }
      ],
      "name": "createCampaign",
      "outputs": [
        {
          "internalType": "uint256",
          "name": "",
          "type": "uint256"
        }
      ],
      "stateMutability": "nonpayable",
      "type": "function"
    },
    {
      "inputs": [
        {
          "internalType": "uint256",
          "name": "_id",
          "type": "uint256"
        }
      ],
      "name": "donateToCampaign",
      "outputs": [],
      "stateMutability": "payable",
      "type": "function"
    },
    {
      "inputs": [
        {
          "internalType": "uint256",
          "name": "_id",
          "type": "uint256"
        }
      ],
      "name": "getCampaign",
      "outputs": [
        {
          "internalType": "address",
          "name": "owner",
          "type": "address"
        },
        {
          "internalType": "string",
          "name": "title",
          "type": "string"
        },
        {
          "internalType": "string",
          "name": "description",
          "type": "string"
        },
        {
          "internalType": "uint256",
          "name": "target",
          "type": "uint256"
        },
        {
          "internalType": "uint256",
          "name": "deadline",
          "type": "uint256"
        },
        {
          "internalType": "uint256",
          "name": "amountCollected",
          "type": "uint256"
        },
        {
          "internalType": "string",
          "name": "image",
          "type": "string"
        },
        {
          "internalType": "bool",
          "name": "claimed",
          "type": "bool"
        }
      ],
      "stateMutability": "view",
      "type": "function"
    },
    {
      "inputs": [
        {
          "internalType": "uint256",
          "name": "_id",
          "type": "uint256"
        }
      ],
      "name": "getDonors",
      "outputs": [
        {
          "internalType": "address[]",
          "name": "",
          "type": "address[]"
        },
        {
          "internalType": "uint256[]",
          "name": "",
          "type": "uint256[]"
        }
      ],
      "stateMutability": "view",
      "type": "function"
    },
    {
      "inputs": [],
      "name": "numberOfCampaigns",
      "outputs": [
        {
          "internalType": "uint256",
          "name": "",
          "type": "uint256"
        }
      ],
      "stateMutability": "view",
      "type": "function"
    }
  ],
  "bytecode": "0x6080604052600060015534801561001557600080fd5b506111b4806100256000396000f3fe6080604052600436106100705760003560e01c8063295165111161004e57806329516511146100f457806342a4fda8146101225780635598f8cc14610135578063d4e3dd6f1461015557600080fd5b806307ca140d14610075578063141961bc1461009e5780631b55e338146100d2575b600080fd5b34801561008157600080fd5b5061008b60015481565b6040519081526020015b60405180910390f35b3480156100aa57600080fd5b506100be6100b9366004610d1f565b610175565b604051610095989796959493929190610d7e565b3480156100de57600080fd5b506100f26100ed366004610d1f565b61035b565b005b34801561010057600080fd5b5061011461010f366004610d1f565b6104ac565b604051610095929190610df5565b6100f2610130366004610d1f565b61057b565b34801561014157600080fd5b506100be610150366004610d1f565b610841565b34801561016157600080fd5b5061008b610170366004610f1c565b610a5b565b600060208190529081526040902080546001820180546001600160a01b0390921692916101a190610fb8565b80601f01602080910402602001604051908101604052809291908181526020018280546101cd90610fb8565b801561021a5780601f106101ef5761010080835404028352916020019161021a565b820191906000526020600020905b8154815290600101906020018083116101fd57829003601f168201915b50505050509080600201805461022f90610fb8565b80601f016020809104026020016040519081016040528092919081815260200182805461025b90610fb8565b80156102a85780601f1061027d576101008083540402835291602001916102a8565b820191906000526020600020905b81548152906001019060200180831161028b57829003601f168201915b5050505050908060030154908060040154908060050154908060060180546102cf90610fb8565b80601f01602080910402602001604051908101604052809291908181526020018280546102fb90610fb8565b80156103485780601f1061031d57610100808354040283529160200191610348565b820191906000526020600020905b81548152906001019060200180831161032b57829003601f168201915b5050506009909301549192505060ff1688565b600081815260208190526040902080546001600160a01b031633146103d35760405162461bcd60e51b815260206004820152602360248201527f4f6e6c792063616d706169676e206f776e65722063616e20636c61696d2066756044820152626e647360e81b60648201526084015b60405180910390fd5b600981015460ff16156104285760405162461bcd60e51b815260206004820152601f60248201527f46756e6473206861766520616c7265616479206265656e20636c61696d65640060448201526064016103ca565b806004015442118061044257508060030154816005015410155b61049f5760405162461bcd60e51b815260206004820152602860248201527f43616d706169676e20686173206e6f7420656e646564206f722072656163686560448201526719081d185c99d95d60c21b60648201526084016103ca565b6104a882610be5565b5050565b6000818152602081815260409182902060078101805484518185028101850190955280855260609485949293600801929091849183018282801561051957602002820191906000526020600020905b81546001600160a01b031681526001909101906020018083116104fb575b505050505091508080548060200260200160405190810160405280929190818152602001828054801561056b57602002820191906000526020600020905b815481526020019060010190808311610557575b5050505050905091509150915091565b60015481106105cc5760405162461bcd60e51b815260206004820152601760248201527f43616d706169676e20646f6573206e6f7420657869737400000000000000000060448201526064016103ca565b6000341161061c5760405162461bcd60e51b815260206004820152601f60248201527f446f6e6174696f6e206d7573742062652067726561746572207468616e20300060448201526064016103ca565b60008181526020819052604090206004015442106106715760405162461bcd60e51b815260206004820152601260248201527110d85b5c185a59db881a185cc8195b99195960721b60448201526064016103ca565b60008181526020819052604090206009015460ff16156106d35760405162461bcd60e51b815260206004820181905260248201527f43616d706169676e2066756e64732068617665206265656e20636c61696d656460448201526064016103ca565b6000818152602081905260408120600581015460038201549192916106f89190611008565b90506000811161074a5760405162461bcd60e51b815260206004820152601f60248201527f43616d706169676e2074617267657420616c726561647920726561636865640060448201526064016103ca565b600081341115610792575080336108fc6107648334611008565b6040518115909202916000818181858888f1935050505015801561078c573d6000803e3d6000fd5b50610795565b50345b600783018054600181810183556000928352602080842090920180546001600160a01b0319163317905560088601805491820181558352908220018290556005840180548392906107e7908490611021565b9091555050604051818152339085907fe555da28bdb778f65d22794d88927ebaeca03f7de9d1b7d39245bc8fb5ca078a9060200160405180910390a3826003015483600501541061083b5761083b84610be5565b50505050565b60008181526020819052604081208054600382015460048301546005840154600985015460018601805460609788978a97889788978b97899795966001600160a01b0390951695946002880194939291600689019160ff9091169087906108a790610fb8565b80601f01602080910402602001604051908101604052809291908181526020018280546108d390610fb8565b80156109205780601f106108f557610100808354040283529160200191610920565b820191906000526020600020905b81548152906001019060200180831161090357829003601f168201915b5050505050965085805461093390610fb8565b80601f016020809104026020016040519081016040528092919081815260200182805461095f90610fb8565b80156109ac5780601f10610981576101008083540402835291602001916109ac565b820191906000526020600020905b81548152906001019060200180831161098f57829003601f168201915b505050505095508180546109bf90610fb8565b80601f01602080910402602001604051908101604052809291908181526020018280546109eb90610fb8565b8015610a385780601f10610a0d57610100808354040283529160200191610a38565b820191906000526020600020905b815481529060010190602001808311610a1b57829003601f168201915b505050505091509850985098509850985098509850985050919395975091939597565b6000428311610aac5760405162461bcd60e51b815260206004820152601e60248201527f446561646c696e65206d75737420626520696e2074686520667574757265000060448201526064016103ca565b60008411610b085760405162461bcd60e51b8152602060048201526024808201527f54617267657420616d6f756e74206d75737420626520677265617465722074686044820152630616e20360e41b60648201526084016103ca565b60018054600090815260208190526040902080546001600160a01b03191633178155908101610b378882611083565b5060028101610b468782611083565b5060038101859055600481018490556000600582015560068101610b6a8482611083565b5060098101805460ff191690556001546040513391907f825fb10f7650ed27414d6f86acdf7d5946927d9b25001f045f1a2435deec02fe90610baf908b908a90611143565b60405180910390a360018054906000610bc783611165565b919050555060018054610bda9190611008565b979650505050505050565b6000818152602081905260409020600981015460ff1615610c485760405162461bcd60e51b815260206004820152601f60248201527f46756e6473206861766520616c7265616479206265656e20636c61696d65640060448201526064016103ca565b60098101805460ff19166001179055805460058201546040516001600160a01b039092169181156108fc0291906000818181858888f19350505050158015610c94573d6000803e3d6000fd5b50805460058201546040519081526001600160a01b039091169083907fa4eb50103b0591feb0bc913f479d92af5eb7ea33e8c397b49bab52ce6af26cb59060200160405180910390a3817f562099c771af1034e0fa4d272eeb12a622c0e7b284ff68212cc5ddd2c1b77d348260050154604051610d1391815260200190565b60405180910390a25050565b600060208284031215610d3157600080fd5b5035919050565b6000815180845260005b81811015610d5e57602081850181015186830182015201610d42565b506000602082860101526020601f19601f83011685010191505092915050565b6001600160a01b038916815261010060208201819052600090610da38382018b610d38565b90508281036040840152610db7818a610d38565b90508760608401528660808401528560a084015282810360c0840152610ddd8186610d38565b91505082151560e08301529998505050505050505050565b604080825283519082018190526000906020906060840190828701845b82811015610e375781516001600160a01b031684529284019290840190600101610e12565b5050508381038285015284518082528583019183019060005b81811015610e6c57835183529284019291840191600101610e50565b5090979650505050505050565b634e487b7160e01b600052604160045260246000fd5b600082601f830112610ea057600080fd5b813567ffffffffffffffff80821115610ebb57610ebb610e79565b604051601f8301601f19908116603f01168101908282118183101715610ee357610ee3610e79565b81604052838152866020858801011115610efc57600080fd5b836020870160208301376000602085830101528094505050505092915050565b600080600080600060a08688031215610f3457600080fd5b853567ffffffffffffffff80821115610f4c57600080fd5b610f5889838a01610e8f565b96506020880135915080821115610f6e57600080fd5b610f7a89838a01610e8f565b955060408801359450606088013593506080880135915080821115610f9e57600080fd5b50610fab88828901610e8f565b9150509295509295909350565b600181811c90821680610fcc57607f821691505b602082108103610fec57634e487b7160e01b600052602260045260246000fd5b50919050565b634e487b7160e01b600052601160045260246000fd5b8181038181111561101b5761101b610ff2565b92915050565b8082018082111561101b5761101b610ff2565b601f82111561107e57600081815260208120601f850160051c8101602086101561105b5750805b601f850160051c820191505b8181101561107a57828155600101611067565b5050505b505050565b815167ffffffffffffffff81111561109d5761109d610e79565b6110b1816110ab8454610fb8565b84611034565b602080601f8311600181146110e657600084156110ce5750858301515b600019600386901b1c1916600185901b17855561107a565b600085815260208120601f198616915b82811015611115578886015182559484019460019091019084016110f6565b50858210156111335787850151600019600388901b60f8161c191681555b5050505050600190811b01905550565b6040815260006111566040830185610d38565b90508260208301529392505050565b60006001820161117757611177610ff2565b506001019056fea264697066735822122018979f28fba90dcbf32fbff00b94d7d351c3ce43e0f755fed7730a22a1fe964364736f6c63430008140033",
  "linkReferences": {},
  "deployedLinkReferences": {}
}